S02A0000416D697420456D6265646465642050726F6A6563742028536D61727420486F6D65292E737265632D
S11300000C942A000C942E020C940E0D0C944700B0
S11300100C9447000C9447000C9447000C94470040
S11300200C9447000C9447000C9456060C9447001B
S11300300C9447000C9447000C9447000C94470020
S11300400C9447000C9447000C9447000C94470010
S11300500C94470011241FBECFE5D8E0DEBFCDBF0E
S113006016E0A0E6B0E0EAE7F3E202C005900D92E4
S1130070AC33B107D9F726E0ACE3B6E001C01D927A
S1130080A035B207E1F70E94830A0C94BB110C94CB
S113009000008AB38E7F8ABB87B1806487B987B139
S11300A0806887B986B1806886B986B1846086B96C
S11300B008958930B8F497B1907E892B87B986B1B9
S11300C0806486B9349BFECF89EF90E00197F1F705
S11300D000C0000084B165B170E0762F6627680F18
S11300E0711D02C060E070E080E090E0089580E05F
S11300F00E9459009B01AC01609340067093410635
S11301008093420690934306A0E0BAE00E94161141
S1130110DC01CB01072E7AE0B695A79597958795D4
S11301207A95D1F7702D90933F0680933E066AE04E
S113013070E00E94E01070933D0660933C060895C1
S113014084EB90E00E94D70789EB90E00E94D707E8
S113015086EB90E00E94D7078EEE90E00E94D707CE
S113016086EB90E00E94D70782E091E00E94D707D7
S113017086EB90E00E94D70788E191E00E94D707C0
S113018086EB90E00E94D70783E391E00E94D707B3
S113019086EB90E00E94D70708951F93CF93DF93D7
S11301A0CDB7DEB72A970FB6F894DEBF0FBECDBF2A
S11301B0182F86EB90E00E94D7071233D9F018F479
S11301C0113341F03BC1133309F464C0143309F40F
S11301D085C034C18DE491E00E94D7070E949A073C
S11301E0803309F42FC10E94AC0B86EB90E00E948F
S11301F0D707F0CF80E891E00E94D7070E949A07C2
S1130200182F86EB90E00E94D707103309F41AC127
S11302108FEC810F853078F48CED91E00E94D70744
S11302200E949A07682F812F0E940D0A86EB90E0A6
S11302300E94D707DFCF163301F588EF91E00E94C3
S1130240D7078091600090916100C0970E94F607E3
S113025086EB90E00E94D7070E949A07682F70E00F
S1130260709361006093600080E090E00E94340A23
S113027086EB90E00E94D707BDCF89EC810F8230D6
S113028020F4812F0E94430AB5CF8CE292E00E94B1
S1130290D707B0CF8EE392E00E94D7070E94770081
S11302A081E692E00E94D70780913C0690913D063A
S11302B00E94F60786EB90E00E94D7072FE58AEEAE
S11302C090E0215080409040E1F700C000005F9B27
S11302D0E5CF0E949A07803309F7B4C08FE191E01B
S11302E00E945904182F88E692E00E94D7070E94C2
S11302F09A07803309F4A6C08133E9F51A30B0F5C2
S113030083EB92E00E94D707BE016F5F7F4F86E0C8
S11303100E94A407CE0101960E94B404882329F008
S113032083EE92E00E94D707D9CF80E093E00E9449
S1130330D707BE01695F7F4F84E00E94A407CE0106
S113034007960E94EF04882329F083E393E00E9438
S1130350D707EFCFBE01695F7F4FCE0101960E94A0
S1130360620586EB90E00E94D707B8CF80E793E060
S11303700E94D707B3CF823309F51123D1F086E861
S113038093E00E94D707BE016F5F7F4F86E00E9413
S1130390A407CE0101960E94B404882329F0CE015B
S11303A001960E949D059ACF82EB93E00E94D707A5
S11303B095CF8DEC93E00E94D70790CF833309F05B
S11303C08DCF1123B1F186E893E00E94D707BE01D7
S11303D06F5F7F4F86E00E94A407CE0101960E94C2
S11303E0B404882309F184EE93E00E94D707BE0188
S11303F0695F7F4F84E00E94A407CE0107960E94A4
S1130400EF04882329F083E393E00E94D707EFCF1A
S1130410BE01695F7F4FCE0101960E94620586EBA3
S113042090E00E94D7075ACF82EB93E00E94D7074F
S113043055CF8DEC93E00E94D70750CF8CE292E029
S11304400E94D7070E94A0002A960FB6F894DEBF38
S11304500FBECDBFDF91CF911F9108951F920F92D0
S11304600FB60F9211241F932F933F934F935F93D3
S11304706F937F938F939F93AF93BF93EF93FF9368
S1130480CF93DF93CDB7DEB72C97DEBFCDBF80E02F
S113049091E00E945904813051F160E08FE191E0D4
S11304A00E947B0485E294E00E94D7078FEF89873E
S11304B08A878B878C87BE01675F7F4F84E00E94A9
S11304C0A40786EB90E00E94D70744E050E0BE0109
S11304D0675F7F4F81E091E00E948D0461E080E0DE
S11304E091E00E947B0480E594E00E94D7078FEF9F
S11304F089838A838B838C838D838E838F83888780
S113050044E050E0BE016B5F7F4F81E091E00E94C8
S113051062048FE594E00E94D70710E0829B43C0F9
S1130520BE016F5F7F4F84E00E94A40786EB90E0DA
S11305300E94D70744E0BE016B5F7F4FCE01019656
S11305400E94ED02882351F085E794E00E94D707CA
S113055081E0809344060E94A00025C086E994E0CF
S11305600E94D707109244061F5F133068F085EA93
S113057094E00E94D70761E080E190E00E947B0450
S113058081E0809345060FC082ED94E00E94D70776
S113059083E090E0811B91090E94F6078EED94E0C0
S11305A00E94D707BBCF2C960FB6F894DEBF0FBEC0
S11305B0CDBFDF91CF91FF91EF91BF91AF919F910B
S11305C08F917F916F915F914F913F912F911F91E7
S11305D00F900FBE0F901F901895DC0190E00DC096
S11305E0292F30E0FD01E20FF31F5081FB01E20FE0
S11305F0F31F2081521305C09F5F941788F381E095
S1130600089580E0089541113CC0813099F028F0AC
S11306108230E9F0833041F108952AB381E090E01B
S113062002C0880F991F6A95E2F7809582238ABBDE
S11306308ABB089527B381E090E002C0880F991F18
S11306406A95E2F78095822387BB87BB089524B31C
S113065081E090E002C0880F991F6A95E2F78095C7
S1130660822384BB84BB089521B381E090E002C05F
S1130670880F991F6A95E2F78095822381BB81BB1D
S11306800895813091F028F08230D9F0833029F137
S113069008952AB381E090E002C0880F991F6A95FB
S11306A0E2F7822B8ABB8ABB089527B381E090E0EE
S11306B002C0880F991F6A95E2F7822B87BB87BB1C
S11306C0089524B381E090E002C0880F991F6A95D1
S11306D0E2F7822B84BB84BB089521B381E090E0D0
S11306E002C0880F991F6A95E2F7822B81BB81BBF8
S11306F008954130C1F5813091F028F08230D9F06D
S1130700833029F108952BB381E090E002C0880F73
S1130710991F6A95E2F7822B8BBB8BBB089528B394
S113072081E090E002C0880F991F6A95E2F7822B5E
S113073088BB88BB089525B381E090E002C0880F90
S1130740991F6A95E2F7822B85BB85BB089522B376
S113075081E090E002C0880F991F6A95E2F7822B2E
S113076082BB82BB0895813099F028F08230E9F091
S1130770833041F108952BB381E090E002C0880FEB
S1130780991F6A95E2F7809582238BBB8BBB0895F2
S113079028B381E090E002C0880F991F6A95E2F7C0
S11307A08095822388BB88BB089525B381E090E0BF
S11307B002C0880F991F6A95E2F78095822385BB52
S11307C085BB089522B381E090E002C0880F991F91
S11307D06A95E2F78095822382BB82BB08958130BB
S11307E089F028F08230C9F0833011F1089589B37B
S11307F090E002C0959587956A95E2F78170FA01B9
S11308008083089586B390E002C0959587956A9594
S1130810E2F78170FA018083089583B390E002C007
S1130820959587956A95E2F78170FA01808308951A
S113083080B390E002C0959587956A95E2F7817040
S1130840FA0180830895611110C0813041F028F0CD
S1130850823039F0833039F008951ABA089517BAFE
S1130860089514BA089511BA0895813049F028F012
S1130870823049F0833051F008958FEF8ABB089598
S11308808FEF87BB08958FEF84BB08958FEF81BBF3
S11308900895813041F028F0823039F0833039F006
S11308A008956BBB089568BB089565BB089562BB4A
S11308B00895E199FECF9FBB8EBB8CB381608CBB46
S11308C08DB30895DC01E199FECF20E030E00FC044
S11308D0F901EA0FFB1FFFBBEEBB9CB391609CBB0D
S11308E0FB01E20FF31F9DB390832F5F3F4F24174B
S11308F0350770F30895E199FECF9FBB8EBB8CB38F
S113090081608CBB8DB3861739F06DBB8CB384606A
S11309108CBB8CB382608CBB0895CF93DF93DC01D6
S1130920EA0120E030E01AC0E199FECFC9018A0F44
S11309309B1F9FBB8EBB9CB391609CBB5DB3FB01B3
S1130940E20FF31F9081591739F09DBB9CB394605B
S11309509CBB9CB392609CBB2F5F3F4F2C173D0701
S113096018F3DF91CF910895EF92FF920F931F93A5
S1130970CF93DF9300D000D000D0CDB7DEB77C0199
S113098000E010E019C0F801EE0FFF1FEA58FF4F16
S113099046E050E0BE016F5F7F4F808191810E94ED
S11309A0620446E0BE016F5F7F4FC7010E94ED0203
S11309B0811107C00F5F1F4F0A30110520F380E03B
S11309C001C081E026960FB6F894DEBF0FBECDBFFE
S11309D0DF91CF911F910F91FF90EF900895EF92C7
S11309E0FF920F931F93CF93DF9300D000D0CDB726
S11309F0DEB77C0100E010E019C0F801EE0FFF1F24
S1130A00EE59FF4F44E050E0BE016F5F7F4F80819D
S1130A1091810E94620444E0BE016F5F7F4FC70171
S1130A200E94ED02811107C00F5F1F4F0A301105AC
S1130A3020F380E001C081E00F900F900F900F90A1
S1130A40DF91CF911F910F91FF90EF900895EF9256
S1130A50FF920F931F93CF93DF9300D000D0CDB7B5
S1130A60DEB77C0100E010E01BC0F801EE0FFF1FB1
S1130A70EE59FF4F44E050E0BE016F5F7F4F80812D
S1130A8091810E94620444E0BE016F5F7F4FC70101
S1130A900E94ED02882311F0802F06C00F5F1F4FC4
S1130AA00A30110510F38FEF082E000C990B0F90EC
S1130AB00F900F900F90DF91CF911F910F91FF90A6
S1130AC0EF900895CF92DF92EF92FF921F93CF930E
S1130AD0DF936C017B018FE191E00E945904182F90
S1130AE0C82FD0E0CC0FDD1FFE01EA58FF4F46E0CF
S1130AF050E0B601808191810E948D04FE01EE597F
S1130B00FF4F44E050E0B701808191810E948D0441
S1130B10C657DF4F61E0888199810E947B0461E0C0
S1130B20610F8FE191E00E947B04DF91CF911F91CF
S1130B30FF90EF90DF90CF900895DF92EF92FF92B5
S1130B400F931F93CF93DF93CDB7DEB76A970FB69A
S1130B50F894DEBF0FBECDBF7C018FE191E00E940F
S1130B605904D82E8AE0EAEAF0E0DE0111960190F9
S1130B700D928A95E1F700E010E05DC0F801EE0FF8
S1130B80FF1FEA58FF4F46E050E0BE01655F7F4F0C
S1130B90808191810E94620446E0BE01655F7F4FBF
S1130BA0C7010E94ED02882309F443C08D2D90E013
S1130BB00817190701F5F801EE0FFF1FEA58FF4F58
S1130BC04AE050E0BE016F5F7F4F808191810E94B7
S1130BD08D046FEF6D0D8FE191E00E947B04ED2D8C
S1130BE0F0E0EE0FFF1FE657FF4F6FEF808191811A
S1130BF00E947B041EC0ED2DF0E0EE0FFF1FEA58AB
S1130C00FF4F4AE050E0BE016F5E7F4F80819181CB
S1130C100E946204000F111FF801EA58FF4F4AE0D6
S1130C2050E0BE016F5E7F4F808191810E948D04F0
S1130C3006C00F5F1F4F0630110508F49FCF6A9658
S1130C400FB6F894DEBF0FBECDBFDF91CF911F91D9
S1130C500F91FF90EF90DF90089578948130910583
S1130C6089F018F00297D9F008958BB780648BBF90
S1130C7081B38B7F81BB85B7816085BF85B7826077
S1130C8085BF08958BB780688BBF81B3886081BBB3
S1130C9085B7846085BF85B7877F85BF08958BB787
S1130CA080628BBF87B38B7F87BB08951F920F929F
S1130CB00FB60F921124AF92BF92CF92DF92EF92B0
S1130CC0FF920F931F932F933F934F935F936F93D1
S1130CD07F938F939F93AF93BF93EF93FF938091F1
S1130CE04506813061F460E070E0CB010E943B0B6B
S1130CF087B3806887BB88B3806888BBFFCF2091A7
S1130D004606309147064091480650914906609145
S1130D104A0670914B0680914C0690914D06A1E0D5
S1130D200E9480112093460630934706409348065C
S1130D305093490660934A0670934B0680934C0681
S1130D4090934D06829B14C080914406813081F4B7
S1130D505F9B04C00E949A0780939F0080919F002C
S1130D608F3F11F00E94CD008FEF80939F0003C04E
S1130D70829B1092440680914F06813041F40E9478
S1130D807F0880939E008F3F11F00E94D10B209129
S1130D9046063091470640914806509149066091B5
S1130DA04A0670914B0680914C0690914D060F2E89
S1130DB0F8E8AF2EF02D0F2EF3E1BF2EF02DC12C4D
S1130DC0D12CE12CF12C00E010E00E942111A0E0D4
S1130DD00E948C11F1F50E94770080913C0690915D
S1130DE03D068531910534F460E070E0CB010E944A
S1130DF03B0B2FC09C012C5131092730310538F4AD
S1130E0060E070E080E89EE30E943B0B22C09C01FE
S1130E10235231092530310538F460E070E080E078
S1130E209FE30E943B0B15C09C01285231092530D9
S1130E30310538F460E070E080E49FE30E943B0BEE
S1130E4008C08D9734F060E070E080E89FE30E9472
S1130E503B0BFF91EF91BF91AF919F918F917F9148
S1130E606F915F914F913F912F911F910F91FF903F
S1130E70EF90DF90CF90BF90AF900F900FBE0F9088
S1130E801F9018958F929F92AF92BF92CF92DF924C
S1130E90EF92FF920F931F934B015C01622F732F0C
S1130EA0842F952F2E2D3F2D402F512F0E946E0FF2
S1130EB06B017C01C501B4010E94310F20E030E0D8
S1130EC040E851E40E9426109B01AC01C701B60121
S1130ED00E94900E0E94931020E030E040E85FE30F
S1130EE00E941E0E0E94020F21B32E7F21BB21B34C
S1130EF0226021BB6F3F71058105910510F469B92A
S1130F0006C060BDBB27A92F982F872F89B98BB145
S1130F108BB98AB188618AB980B5866880BD1F9112
S1130F200F91FF90EF90DF90CF90BF90AF909F9084
S1130F308F9008955F9BFECF8CB108955D9BFECF8B
S1130F408CB95E9BFECF0895BF92CF92DF92EF9251
S1130F50FF920F931F93CF93DF93B82EEB0102C040
S1130F600E949A075F99FCCFC12CD12C76010CC04A
S1130F708E010C0D1D1D0E949A07F8018083FFEF5E
S1130F80CF1ADF0AEF0AFF0A8B2D90E0A0E0B0E051
S1130F90C816D906EA06FB0658F3DF91CF911F91D4
S1130FA00F91FF90EF90DF90CF90BF900895CF9274
S1130FB0DF92EF92FF92CF93DF93EC01C12CD12CFF
S1130FC0760107C00E949E078FEFC81AD80AE80A64
S1130FD0F80AFE01EC0DFD1D80818111F3CFDF9134
S1130FE0CF91FF90EF90DF90CF900895EF92FF9212
S1130FF00F931F93CF93DF93CDB7DEB7A8970FB6A8
S1131000F894DEBF0FBECDBF7C0199233CF48DE282
S11310100E949E07F194E194F10805C0892B19F40C
S113102080E30E949E0700E010E014C0C7016AE05C
S113103070E00E94E010F801EE0FFF1F21E030E0A5
S11310402C0F3D1FE20FF31F91838083E62EF72EB2
S11310500F5F1F4FE114F10449F7015011090FC04C
S1131060F801EE0FFF1F81E090E08C0F9D1FE80F49
S1131070F91F8081805D0E949E0701501109112390
S11310807CF7A8960FB6F894DEBF0FBECDBFDF91F4
S1131090CF911F910F91FF90EF90089541E062E08E
S11310A080E00E94030341E063E080E00E940303C8
S11310B041E064E080E00E94030340E065E080E0FA
S11310C00E94030340E066E080E00E94030340E0E6
S11310D067E080E00E9403038BB384608BBB8BB317
S11310E088608BBB8BB380618BBB8BB380628BBB03
S11310F08BB380648BBB8BB380688BBB0895CF921A
S1131100DF92EF92FF920F931F93CF93DF931F927F
S1131110CDB7DEB700E042C0C02ED12CF601E95FA6
S1131120FA4F40E0608180E00E94790310E02BC018
S1131130E12EF12CF701EC5FFA4FAE014F5F5F4FE8
S1131140608180E00E94EF03898181111BC0C70187
S1131150880F991F8E0D9F1D85509B4FFC01EC0D30
S1131160FD1D10810AC0AE014F5F5F4FF701EC5FB8
S1131170FA4F608180E00E94EF039981992399F3EB
S1131180812F10C01F5F133098F2F601E95FFA4F08
S113119041E0608180E00E9479030F5F033008F42E
S11311A0BBCF8FEF0F90DF91CF911F910F91FF90E5
S11311B0EF90DF90CF9008958FEF02C00E947F08D8
S11311C08F3FE1F30895CF93C82F40E061E080E0C2
S11311D00E94790340E066E083E00E9479036C2F6B
S11311E082E00E94490441E066E081E00E947903C4
S11311F083EF91E00197F1F700C0000040E066E062
S113120081E00E947903CF91089561E082E00E9419
S1131210230441E061E080E00E94030341E066E0D2
S113122083E00E94030341E066E081E00E9403033F
S113123085EA9EE00197F1F700C0000088E30E9470
S1131240E3088CE00E94E30881E00E94E30883EF56
S113125091E00197F1F700C000000895CF93DF9368
S1131260D82FC62F862F90E020E4D29F800D911DA9
S1131270112480580E94E30880E1D89FC00D1124F6
S1131280C0934E06DF91CF910895CF93C82F8091DC
S11312904E06803121F460E081E00E942E0941E095
S11312A061E080E00E94790340E066E083E00E9410
S11312B079036C2F82E00E94490441E066E081E0FA
S11312C00E94790383EF91E00197F1F700C00000D9
S11312D040E066E081E00E94790380914E068F5FD2
S11312E080934E06CF910895CF93DF93EC0103C012
S11312F021960E94450988818111FACFDF91CF910F
S11313000895CF93DF93CDB7DEB760970FB6F89407
S1131310DEBF0FBECDBF992344F42DE229839195FE
S11313208195910921E030E004C020E030E001C063
S11313309A016AE070E00E94E010E1E0F0E0EC0F56
S1131340FD1FE20FF31F805D8083A9014F5F5F4F94
S1131350862F972F181619065CF360E070E014C00E
S1131360A1E0B0E0AC0FBD1FA60FB71F8C91E1E068
S1131370F0E0EC0FFD1FE20FF31F90819C9380833C
S1131380215031096F5F7F4FCA0155230CF4019638
S113139095958795681779071CF3CE0101960E94ED
S11313A0740960960FB6F894DEBF0FBECDBFDF910F
S11313B0CF91089581E00E94E30810924E060895AB
S11313C00F931F93CF93DF938C01C0E0D0E004C050
S11313D088E10E94E3082196C017D107C8F3DF9182
S11313E0CF911F910F91089520E030E010C047B3D2
S11313F0F901E056FF4F81E090E0008002C0880FC1
S1131400991F0A94E2F7842B87BB2F5F3F4F253047
S113141031056CF30E94CB0A089590E0C1976133C3
S113142081F448B3FC01E056FF4F21E030E0C901EC
S1131430008002C0880F991F0A94E2F7842B88BBAE
S11314400895623381F448B3FC01E056FF4F21E074
S113145030E0C901008002C0880F991F0A94E2F7A6
S11314608095842388BB089560537109810991098B
S11314700E94310F20E030E040E151E40E94900EE0
S11314800E940B0B08958733F1F411C048B3F9019E
S1131490E056FF4F81E090E0008002C0880F991F62
S11314A00A94E2F7842B88BB2F5F3F4F02C020E0F1
S11314B030E02530310550F360E070E080E89FE3D0
S11314C00E940B0B08958833E9F412C048B3F90164
S11314D0E056FF4F81E090E0008002C0880F991F22
S11314E00A94E2F78095842388BB2F5F3F4F02C0A4
S11314F020E030E02530310548F360E070E0CB01B6
S11315000E940B0B08956894EE24E6F80F2EF2E483
S1131510FF2EF02D0FE010E020E030E040E050E03E
S113152060EC72E180E090E00E9442070E94B50AFC
S11315300E94F40A80E090E00E942D0681E090E091
S11315400E942D060E9449000E94F4090E94050988
S11315500E944E0860E070E0CB010E940B0B60E03B
S11315608FE191E00E947B04FFCF83B7886083BF43
S113157083B78F7B83BF83B78E7F83BF83B782603C
S113158083BF83B78B7F83BF89B7826089BF80E8BD
S11315908CBF12BE08958FB581608FBD8FB58D7FCE
S11315A08FBD8EB588608EBD81B3806281BB81B3EF
S11315B0806181BB8EB581608EBD8EB582608EBD2B
S11315C08EB58B7F8EBD8FB580688FBD8FB58F7BB9
S11315D08FBD8FB580628FBD8FB58F7E8FBD1BBCD5
S11315E01ABC19BC18BC089585B5806485BD85B541
S11315F0886085BD85B58E7F85BD85B5806285BDD6
S113160085B58D7F85BD85B5846085BD81B38068D2
S113161081BB13BC0895CF92DF92EF92FF926B01CE
S11316207C0120E030E0A9010E948B0E18161CF00A
S11316301BBC1ABC1BC020E030E040E85FE3C701DC
S1131640B6010E94211088232CF08FEF90E09BBDFF
S11316508ABD0CC020E030E04FE753E4C701B60177
S11316600E9426100E94020F7BBD6ABDFF90EF907E
S1131670DF90CF900895CF92DF92EF92FF926B01AB
S11316807C0120E030E0A9010E948B0E18161CF0AA
S113169019BC18BC1BC020E030E040E85FE3C70180
S11316A0B6010E94211088232CF08FEF90E099BDA1
S11316B088BD0CC020E030E04FE753E4C701B60119
S11316C00E9426100E94020F79BD68BDFF90EF9022
S11316D0DF90CF900895CF92DF92EF92FF926B014B
S11316E07C0120E030E0A9010E948B0E181614F052
S11316F013BC18C020E030E040E85FE3C701B60146
S11317000E94211088231CF08FEF83BD0BC020E0C2
S113171030E04FE753E4C701B6010E9426100E944F
S1131720020F63BDFF90EF90DF90CF90089520E00B
S113173030E044E353E40E94900E29E23CE54FE894
S11317405DE30E9426102EEA37E441E65DE30E9441
S11317501F0E0E946B0B0895813339F460E070E032
S113176084EB92E40E94970B0895823331F460E095
S113177070E0CB010E94970B08958CE292E00E94E6
S1131780D70708950E94DA098AE095E00E94740957
S113179060E081E00E942E0989E195E00E947409CD
S11317A00895CF93C82F0E94C20BC13319F0C233DE
S11317B001F123C10E94DA098AE295E00E947409CA
S11317C060E081E00E942E0989E395E00E9474099B
S11317D00E9477006EE081E00E942E0980913C0611
S11317E090913D060E9481090E947F08893381F708
S11317F013C10E94DA0988E495E00E94740960E04C
S113180081E00E942E0988E595E00E94740961E157
S113181080E00E942E0989E695E00E94740961E146
S113182081E00E942E0988E795E00E94740981E016
S113183090E0A0E0B0E08093A6009093A700A0936E
S1131840A800B093A9008093A5008091A600909170
S1131850A700A091A800B091A9000196A11DB11DF7
S11318608093A6009093A700A093A800B093A9002A
S11318706091A6007091A7008091A8009091A900A2
S113188024EF31E040E050E00E94F410672B682B15
S1131890692BC1F48091A5008130A1F481E190E02D
S11318A00E94E00981E090E0A0E0B0E08093A6000F
S11318B09093A700A093A800B093A90082E080931E
S11318C0A50042C06091A6007091A7008091A80075
S11318D09091A90028E532E040E050E00E94F41025
S11318E0672B682B692B81F58091A500823061F507
S11318F00E94DA0988E895E00E94740960E081E0BA
S11319000E942E0988E595E00E94740961E180E057
S11319100E942E0989E695E00E94740961E181E044
S11319200E942E0988E795E00E94740981E090E006
S1131930A0E0B0E08093A6009093A700A093A80035
S1131940B093A9008093A5000E947F08C82F8F3F01
S113195009F47BCF893309F450C08FEC8C0F8530A8
S1131960A8F40E94DA0989E995E00E94740960E00C
S113197081E00E942E0984EA95E00E9474090E9485
S1131980DC08682F8C2F0E940D0A25C0C633B9F4D9
S11319900E94DA0980EB95E00E94740960E081E01E
S11319A00E942E0982EC95E00E9474090E94DC08D2
S11319B0682F70E080E090E00E94340A0CC089EC4B
S11319C08C0F823020F48C2F0E94430A04C08EECCA
S11319D095E00E94740987E592E0A0E0B0E080936E
S11319E0A6009093A700A093A800B093A90082E05A
S11319F08093A5000E94DA0928CF0E94DA098DEDB0
S1131A0095E00E9474092FE986E891E02150804016
S1131A109040E1F700C00000CF9108951F920F920B
S1131A200FB60F921124EF92FF920F931F932F93EF
S1131A303F934F935F936F937F938F939F93AF9352
S1131A40BF93EF93FF93CF93DF93CDB7DEB72B977D
S1131A50DEBFCDBF80914F06813039F40E94DA0990
S1131A6010924F0622E02B8702C081E08B87E12C85
S1131A70C4C08FEF8F83888789878A870E94DA0999
S1131A808DEE95E00E9474098FE493EC0197F1F7D1
S1131A9000C0000000E02EC00E947F08182F01C083
S1131AA01FEF1F3FC9F3E7E0F0E0EC0FFD1FE00F6D
S1131AB0F11D10830F2EFBE0FF2EF02DF00E6F2D85
S1131AC080E00E942E09812F0E9445098FE493EC47
S1131AD00197F1F700C000006F2D80E00E942E09ED
S1131AE08AE20E9445090F5F83ED90E30197F1F7C5
S1131AF000C000000430A0F2CE0107960E94270522
S1131B00019609F044C010924F06E3940E94DA094A
S1131B1089EF95E00E94740982E08E1500F59FE933
S1131B2026E881E0915020408040E1F700C00000A9
S1131B300E94DA0984E096E00E94740960E081E082
S1131B400E942E0981EC94E00E94740961E080E116
S1131B5090E00E947B0481E08093450652C060E0DF
S1131B6081E00E942E0983E38E190E94450985E1D4
S1131B7096E00E9474099FE32DE083E09150204099
S1131B808040E1F700C000000E94DA0936C0CE01AF
S1131B9007960E9427058C010E94DA0984E296E0E8
S1131BA00E947409F801EE0FFF1FEA58FF4F46E048
S1131BB050E0BE016F5F7F4F808191810E9462047B
S1131BC061E081E00E942E0981E396E00E9474099D
S1131BD0CE0101960E9474099FE32DE083E09150A9
S1131BE020408040E1F700C000000E94DA0981E053
S1131BF080934F060E94C20B04C09B85913009F468
S1131C0038CF2B960FB6F894DEBF0FBECDBFDF9151
S1131C10CF91FF91EF91BF91AF919F918F917F9160
S1131C206F915F914F913F912F911F910F91FF9071
S1131C30EF900F900FBE0F901F9018955058BB2730
S1131C40AA270E94360E0C94E70F0E94D90F38F091
S1131C500E94E00F20F039F49F3F19F426F40C940D
S1131C60D60F0EF4E095E7FB0C94D00FE92F0E94F9
S1131C70F80F58F3BA17620773078407950720F023
S1131C8079F4A6F50C941A100EF4E0950B2EBA2FE5
S1131C90A02D0B01B90190010C01CA01A00111246E
S1131CA0FF27591B99F0593F50F4503E68F11A161A
S1131CB0F040A22F232F342F4427585FF3CF4695AB
S1131CC037952795A795F0405395C9F77EF41F16CD
S1131CD0BA0B620B730B840BBAF09150A1F0FF0F97
S1131CE0BB1F661F771F881FC2F70EC0BA0F621F83
S1131CF0731F841F48F4879577956795B795F79573
S1131D009E3F08F0B0CF9395880F08F09927EE0F07
S1131D109795879508950E94AC0F08F481E0089583
S1131D200E94A40E0C94E70F0E94E00F58F00E944A
S1131D30D90F40F029F45F3F29F00C94D00F5111D2
S1131D400C941B100C94D60F0E94F80F68F399237F
S1131D50B1F3552391F3951B550BBB27AA276217A3
S1131D607307840738F09F5F5F4F220F331F441FB0
S1131D70AA1FA9F335D00E2E3AF0E0E832D09150E4
S1131D805040E695001CCAF72BD0FE2F29D0660FD1
S1131D90771F881FBB1F261737074807AB07B0E814
S1131DA009F0BB0B802DBF01FF2793585F4F3AF01A
S1131DB09E3F510578F00C94D00F0C941B105F3F9C
S1131DC0E4F3983ED4F3869577956795B795F795A0
S1131DD09F5FC9F7880F911D9695879597F9089588
S1131DE0E1E0660F771F881FBB1F62177307840724
S1131DF0BA0720F0621B730B840BBA0BEE1F88F733
S1131E00E09508950E94001088F09F5798F0B92F2C
S1131E109927B751B0F0E1F0660F771F881F991F1B
S1131E201AF0BA95C9F714C0B13091F00E941A1093
S1131E30B1E008950C941A10672F782F8827B85FA3
S1131E4039F0B93FCCF3869577956795B395D9F773
S1131E503EF490958095709561957F4F8F4F9F4F7D
S1131E600895E89409C097FB3EF490958095709589
S1131E7061957F4F8F4F9F4F9923A9F0F92F96E9D2
S1131E80BB279395F695879577956795B795F11147
S1131E90F8CFFAF4BB0F11F460FF1BC06F5F7F4FE4
S1131EA08F4F9F4F16C0882311F096E911C07723F6
S1131EB021F09EE8872F762F05C0662371F096E8FF
S1131EC0862F70E060E02AF09A95660F771F881FCE
S1131ED0DAF7880F9695879597F90895E894F92F7E
S1131EE096EBFF2381F0121613061406440B939508
S1131EF0F69587957795679557954040FF23B9F7F1
S1131F001BC099270895882351F49850D2F7872B42
S1131F10762F652F542F432F322F20E0B1F3121662
S1131F2013061406440B88233AF09A95440F551F60
S1131F30661F771F881FCAF755234AF4440F551F9D
S1131F4011F460FF04C06F5F7F4F8F4F9F4F880F66
S1131F509695879597F90895990F0008550FAA0B40
S1131F60E0E8FEEF16161706E807F907C0F01216A8
S1131F701306E407F50798F0621B730B840B950BAB
S1131F8039F40A2661F0232B242B252B21F4089500
S1131F900A2609F4A140A6958FEF811D811D08959D
S1131FA097F99F6780E870E060E008959FEF80EC08
S1131FB0089500240A9416161706180609060895AB
S1131FC000240A9412161306140605060895092E11
S1131FD00394000C11F4882352F0BB0F40F4BF2B80
S1131FE011F460FF04C06F5F7F4F8F4F9F4F0895C0
S1131FF057FD9058440F551F59F05F3F71F04795B6
S1132000880F97FB991F61F09F3F79F0879508959A
S1132010121613061406551FF2CF4695F1DF08C0B9
S1132020161617061806991FF1CF869571056105D6
S113203008940895E894BB2766277727CB0197F97E
S113204008950E94AC0F08F48FEF08950E94391090
S11320500C94E70F0E94D90F38F00E94E00F20F093
S1132060952311F00C94D00F0C94D60F11240C94DA
S11320701B100E94F80F70F3959FC1F3950F50E069
S1132080551F629FF001729FBB27F00DB11D639F26
S1132090AA27F00DB11DAA1F649F6627B00DA11DCC
S11320A0661F829F2227B00DA11D621F739FB00D72
S11320B0A11D621F839FA00D611D221F749F3327E2
S11320C0A00D611D231F849F600D211D822F762F7B
S11320D06A2F11249F5750409AF0F1F088234AF058
S11320E0EE0FFF1FBB1F661F771F881F91505040C4
S11320F0A9F79E3F510580F00C94D00F0C941B104F
S11321005F3FE4F3983ED4F3869577956795B7954A
S1132110F795E7959F5FC1F7FE2B880F911D969564
S1132120879597F908950E940010E8F09E37E8F02B
S11321309639B8F49E3848F4672F782F8827985F2B
S1132140F9CF86957795679593959539D0F3B62F02
S1132150B1706B0F711D811D20F48795779567957C
S113216093950C94B7100C94D2100C941B108823E4
S113217071F4772321F09850872B762F07C06623BC
S113218011F499270DC09051862B70E060E02AF07D
S11321909A95660F771F881FDAF7880F96958795AB
S11321A097F908959F3F31F0915020F487957795E2
S11321B06795B795880F911D9695879597F908951A
S11321C097FB072E16F4009407D077FD09D00E94E0
S11321D0981107FC05D03EF4909581959F4F089582
S11321E0709561957F4F0895A1E21A2EAA1BBB1B1F
S11321F0FD010DC0AA1FBB1FEE1FFF1FA217B307CF
S1132200E407F50720F0A21BB30BE40BF50B661FE4
S1132210771F881F991F1A9469F7609570958095A8
S113222090959B01AC01BD01CF0108950E94AC11B2
S1132230A59F900DB49F900DA49F800D911D112416
S11322400895689401C0E8948F929F92CF93DF938E
S11322500E942F11DF91CF919F908F900895882431
S11322609924F401E401B0E49F93AA279A158B04FE
S11322709C04ED05FE05CF05D007A10798F4AD2F0A
S1132280DC2FCF2FFE2FE92D982C892E982F872F06
S1132290762F652F542F432F322F2227B85031F732
S11322A0BF9127C01B2EBF91BB27220F331F441F92
S11322B0551F661F771F881F991F881C991CEE1FC6
S11322C0FF1FCC1FDD1FAA1FBB1F8A149B04EC0534
S11322D0FD05CE05DF05A007B10748F08A189B0865
S11322E0EC09FD09CE09DF09A00BB10B21601A949A
S11322F0E1F62EF49401AF01BE01CD01000C089566
S11323000024A7FD00942A0F301D401D501D601DA0
S1132310701D801D901D08950024A7FD00942A17A8
S11323203005400550056005700580059005089549
S1132330AA1BBB1B51E107C0AA1FBB1FA617B707E7
S113234010F0A61BB70B881F991F5A95A9F7809503
S11323509095BC01CD010895A29FB001B39FC00127
S1132360A39F700D811D1124911DB29F700D811DBD
S10D23701124911D0895F894FFCF85
S113237A30002601360146015601660176018601BE
S113238A9601A601B6012001300140015001600105
S113239A700180019001A001B00111011201130121
S11323AA1401150116011701180119011A01FFFF79
S11323BA00010204050201000000FFFFFFFFFFFF06
S11323CAFFFFFFFF0D0A0D0A005072657373207434
S11323DA686520666F6C6C6F77696E67206E756DC1
S11323EA62657220666F72207468652066756E6312
S11323FA74696F6E20796F75206E65656400313A71
S113240A20636F6E74726F6C2074686520646F6FDA
S113241A7200323A20636F6E74726F6C207468654E
S113242A206C696768747300333A206D6F6E69743F
S113243A6F72207468652074656D70657261747555
S113244A726500343A206564697420746865206C86
S113245A697374206F66207573657273000D0A3090
S113246A3A20676F206261636B200D0A313A206F4C
S113247A70656E2074686520646F6F72200D0A326D
S113248A3A20636C6F736520646F6F72200D0A00C3
S113249A0D0A303A20676F206261636B200D0A636C
S11324AA686F6F7365206C6564203120746F203502
S11324BA206F72203620666F722064696D6D6572B2
S11324CA206C6564200D0A373A207475726E206197
S11324DA6C6C206F6E20202020383A207475726E3E
S11324EA20616C6C206F6666200D0A00313A2074F4
S11324FA75726E206F6E200D0A323A207475726EF0
S113250A206F6666200D0A0043686F6F7365206248
S113251A72696768746E65737320796F7520776161
S113252A6E742066726F6D203020746F2039206EAD
S113253A6F7720697427732061742000696E76614D
S113254A6C69642063686F696365200D0A007072A0
S113255A65737320303A20746F20676F2062616359
S113256A6B20746F20746865206C697374200D0A7B
S113257A0054656D703A20000D0A303A20676F20C6
S113258A6261636B200D0A313A20616464207573B9
S113259A6572202020323A2072656D6F7665207547
S11325AA736572202020333A206368616E67652060
S11325BA7573657227732070617373776F72642001
S11325CA0D0A000D0A456E7465722074686520361A
S11325DA2D63686172616374657273206E616D65DF
S11325EA206F6620746865206E657720757365723E
S11325FA3A20000D0A546869732075736572206164
S113260A6C7265616479206578697374200D0A00B7
S113261A0D0A456E746572206120342D63686172F7
S113262A6163746572732070617373776F72642067
S113263A666F7220746865206E657720757365729B
S113264A3A20000D0A416E6F7468657220757365CD
S113265A72206973207573696E67207468652073C4
S113266A616D652070617373776F72642C20747264
S113267A7920616E6F74686572206F6E653A200006
S113268A0D0A546865206C69737420697320467551
S113269A6C6C200D0A000D0A456E7465722074680C
S11326AA6520362D63686172616374657273206E86
S11326BA616D65206F662074686520757365723A6A
S11326CA20000D0A546865207573657220697320A9
S11326DA6E6F7420666F756E64200D0A000D0A54BD
S11326EA6865206C69737420697320456D70747908
S11326FA200D0A000D0A456E7465722074686520FF
S113270A6E657720342D63686172616374657273D0
S113271A2070617373776F726420796F75207761A3
S113272A6E7420746F206368616E67652069742013
S113273A746F3A20004C6F67696E20666F72206668
S113274A697273742074696D65200D0A5365742067
S113275A796F75722070617373776F72643A2000AF
S113276A436F6E6669726D6174696F6E2C200045E1
S113277A6E74657220796F75722070617373776FE6
S113278A72643A20005269676874205061737377DF
S113279A6F72642C2057656C636F6D652041646D9C
S11327AA696E200D0A0057726F6E67205061737349
S11327BA776F7264002C20596F75206861766520E2
S11327CA6265656E20626C6F636B6564200D0A0D29
S11327DA0A52657365742054686520537973746565
S11327EA6D002C20596F752068617665200020746D
S11327FA7269616C287329206C656674200D0A5409
S113280A727920616761696E3A2000373839343544
S113281A36313233050607020304313A54656D70C2
S113282A204D6F6E69746F7200323A436F6E747220
S113283A6F6C204C69676874730020393A20546FAE
S113284A20476F204261636B002054656D70657286
S113285A61747572653D20003920476F20426163B7
S113286A6B2C205069636B004C454420312D3E3556
S113287A2C20362044696D6D00373A205475726EE7
S113288A20416C6C204F6E00383A205475726E20C9
S113289A416C6C204F6666003920476F20426163A1
S11328AA6B2C43686F6F736500313A205475726EEE
S11328BA204F6E00323A205475726E204F666600BD
S11328CA43686F6F7365206272696768746E6573B3
S11328DA730066726F6D203020746F203900496E60
S11328EA76616C69642043686F69636500496E7632
S11328FA76616C69642043686F69636500456E7428
S113290A657220706173733A0057726F6E67207034
S113291A61737300596F75204265656E20426C6F4E
S113292A636B65640020547269616C287329206C96
S113293A65667400436F72726563742070617373A1
S10F294A0057656C636F6D652020000071
S9030000FC
