:100000000C942A000C94F1000C9447000C944700C7
:100010000C9447000C9447000C9447000C94470044
:100020000C9447000C9447000C9447000C94470034
:100030000C9447000C9447000C9447000C94470024
:100040000C9447000C9447000C9447000C94470014
:100050000C94470011241FBECFE5D8E0DEBFCDBF12
:1000600012E0A0E6B0E0E6E5FAE002C005900D92ED
:10007000AC30B107D9F722E0ACE0B2E001C01D928C
:10008000AD30B207E1F70E9416020C9429050C94DA
:100090000000CF93DF93EC0160E070E021C0FB0132
:1000A000EE0FFF1FEE0FFF1FE456FF4FE20FF31F8F
:1000B000E081DE01A20FB31F9C91E9130FC04F5FD7
:1000C0005F4F4430510591F02F5F3F4F04C020E057
:1000D00030E040E050E0243031050CF36F5F7F4F9B
:1000E00063307105A4F38FEF9FEF02C0862F972F27
:1000F000DF91CF91089540E050E0A0E0B0E018C05B
:10010000282F30E0F901EE0FFF1FE20FF31FE05A36
:10011000FF4FE40FF51F2081FB01E40FF51F9081D5
:1001200029130BC01196A330B10549F04F5F5F4F03
:10013000433051052CF380E0089580E0089581E07C
:1001400008958FED91E00E9400028CEE90E00E94F5
:1001500000028FED91E00E94000281E291E00E9496
:1001600000028FED91E00E94000285E391E00E9481
:1001700000028FED91E00E9400028BE491E00E946A
:1001800000028FED91E00E94000286E691E00E945D
:1001900000028FED91E00E94000286E791E00E944C
:1001A00000028FED91E00E9400020895813319F062
:1001B000823391F0089580E991E00E94000284EA80
:1001C00091E00E9400020E94D0010E9487028FED00
:1001D00091E00E940002089585EB91E00E940002E8
:1001E00008951F920F920FB60F9211240F931F9331
:1001F0002F933F934F935F936F937F938F939F932F
:10020000AF93BF93EF93FF93CF93DF93CDB7DEB759
:100210002897DEBFCDBF87EC91E00E940002BE01AF
:100220006F5F7F4F84E00E94DA018FED91E00E94C2
:100230000002CE0101960E9449008C010F3F8FEF12
:10024000180731F485B3805885BB10920C0224C086
:1002500082EE91E00E940002BE016B5F7F4F83E05F
:100260000E94DA018FED91E00E940002BE016B5FF7
:100270007F4F802F0E947B00882341F092B388E05B
:10028000892782BB81E080930C0206C095B384E08D
:10029000892785BB10920C0228960FB6F894DEBF12
:1002A0000FBECDBFDF91CF91FF91EF91BF91AF9185
:1002B0009F918F917F916F915F914F913F912F917E
:1002C0001F910F910F900FBE0F901F9018959C01DA
:1002D000789495B7916095BF95B7926095BF21309E
:1002E000310561F02230310581F0232BA1F48BB769
:1002F00080648BBF81B38B7F81BB08958BB780688F
:100300008BBF81B3877F81BB08958BB780628BBF22
:1003100087B38B7F87BB0895CF92DF92EF92FF92D6
:10032000CF93DF93EC01CB01BA010E94B8036B01BC
:100330007C01BE0180E090E00E94B80320E030E044
:1003400040E851E40E946F049B01AC01C701B60173
:100350000E9410030E94DC0420E030E040E85FE3EC
:100360000E949E020E94820321B32E7F21BB21B3F3
:10037000226021BB6F3F710514F469B902C060BDF2
:1003800079B98BB18BB98AB188618AB980B5866831
:1003900080BDDF91CF91FF90EF90DF90CF900895D7
:1003A0005F9BFECF8CB108955D9BFECF8CB95E9BA9
:1003B000FECF0895CF92DF92FF920F931F93CF93BA
:1003C000DF93F82E6B0102C00E94D0015F99FCCF31
:1003D000C0E0D0E008C086010C0F1D1F0E94D001B4
:1003E000F801808321968F2D90E0C817D9079CF3E0
:1003F000DF91CF911F910F91FF90DF90CF900895E3
:100400000F931F93CF93DF938C01C0E0D0E003C024
:100410000E94D4012196F801EC0FFD1F808181110B
:10042000F7CFDF91CF911F910F91089581B388602D
:1004300081BB84B3806884BB84B3846084BB80E068
:1004400090E00E94670140E452E46FE070E080ECCD
:1004500092E10E948C010E9445020CC00E94A10002
:100460000E94D001C82F8FED91E00E9400028C2FD6
:100470000E94D600829B04C080910C02813071F3EF
:100480008299F8CF10920C02F5CF85B5886085BDB2
:1004900085B5806485BD85B5806285BD85B58E7F57
:1004A00085BD85B58D7F85BD85B5846085BD81B3EE
:1004B000806881BB0895CF92DF92EF92FF926B012B
:1004C0007C0120E030E0A9010E940B03181614F013
:1004D00013BC18C020E030E040E85FE3C701B6017C
:1004E0000E946A0488231CF08FEF83BD0BC020E0BC
:1004F00030E04FE753E4C701B6010E946F040E9449
:10050000890363BDFF90EF90DF90CF900895813312
:1005100039F46CEE71E588EB9DE30E945B0208956F
:10052000823339F46EEA77E481E69DE30E945B0250
:10053000089589EF91E00E94000208955058BB276A
:10054000AA270E94B6020C9430040E94220438F0BC
:100550000E94290420F039F49F3F19F426F40C94EA
:100560001F040EF4E095E7FB0C941904E92F0E9498
:10057000410458F3BA17620773078407950720F000
:1005800079F4A6F50C9463040EF4E0950B2EBA2FC3
:10059000A02D0B01B90190010C01CA01A001112489
:1005A000FF27591B99F0593F50F4503E68F11A1635
:1005B000F040A22F232F342F4427585FF3CF4695C6
:1005C00037952795A795F0405395C9F77EF41F16E8
:1005D000BA0B620B730B840BBAF09150A1F0FF0FB2
:1005E000BB1F661F771F881FC2F70EC0BA0F621F9E
:1005F000731F841F48F4879577956795B795F7958E
:100600009E3F08F0B0CF9395880F08F09927EE0F22
:100610009795879508950E94F50308F481E0089561
:100620000E9424030C9430040E94290458F00E9474
:10063000220440F029F45F3F29F00C941904511171
:100640000C9464040C941F040E94410468F39923E1
:10065000B1F3552391F3951B550BBB27AA276217BE
:100660007307840738F09F5F5F4F220F331F441FCB
:10067000AA1FA9F335D00E2E3AF0E0E832D09150FF
:100680005040E695001CCAF72BD0FE2F29D0660FEC
:10069000771F881FBB1F261737074807AB07B0E82F
:1006A00009F0BB0B802DBF01FF2793585F4F3AF035
:1006B0009E3F510578F00C9419040C9464045F3F3C
:1006C000E4F3983ED4F3869577956795B795F795BB
:1006D0009F5FC9F7880F911D9695879597F90895A3
:1006E000E1E0660F771F881FBB1F6217730784073F
:1006F000BA0720F0621B730B840BBA0BEE1F88F74E
:10070000E09508950E9489036894B1110C946404E3
:1007100008950E94490488F09F5798F0B92F9927AF
:10072000B751B0F0E1F0660F771F881F991F1AF0DC
:10073000BA95C9F714C0B13091F00E946304B1E0DA
:1007400008950C946304672F782F8827B85F39F0D9
:10075000B93FCCF3869577956795B395D9F73EF475
:1007600090958095709561957F4F8F4F9F4F08951D
:10077000E89409C097FB3EF490958095709561953B
:100780007F4F8F4F9F4F9923A9F0F92F96E9BB27F1
:100790009395F695879577956795B795F111F8CF6D
:1007A000FAF4BB0F11F460FF1BC06F5F7F4F8F4FD8
:1007B0009F4F16C0882311F096E911C0772321F0CE
:1007C0009EE8872F762F05C0662371F096E8862F66
:1007D00070E060E02AF09A95660F771F881FDAF7BD
:1007E000880F9695879597F90895990F0008550FEA
:1007F000AA0BE0E8FEEF16161706E807F907C0F0A7
:1008000012161306E407F50798F0621B730B840BAE
:10081000950B39F40A2661F0232B242B252B21F488
:1008200008950A2609F4A140A6958FEF811D811D28
:10083000089597F99F6780E870E060E008959FEF62
:1008400080EC089500240A94161617061806090667
:10085000089500240A941216130614060506089536
:10086000092E0394000C11F4882352F0BB0F40F4BE
:10087000BF2B11F460FF04C06F5F7F4F8F4F9F4FFE
:10088000089557FD9058440F551F59F05F3F71F080
:100890004795880F97FB991F61F09F3F79F08795E7
:1008A0000895121613061406551FF2CF4695F1DF70
:1008B00008C0161617061806991FF1CF8695710500
:1008C000610508940895E894BB2766277727CB0134
:1008D00097F908950E94F50308F48FEF08950E9498
:1008E00082040C9430040E94220438F00E942904EF
:1008F00020F0952311F00C9419040C941F0411247A
:100900000C9464040E94410470F3959FC1F3950F09
:1009100050E0551F629FF001729FBB27F00DB11D83
:10092000639FAA27F00DB11DAA1F649F6627B00D13
:10093000A11D661F829F2227B00DA11D621F739FFC
:10094000B00DA11D621F839FA00D611D221F749F0A
:100950003327A00D611D231F849F600D211D822F51
:10096000762F6A2F11249F5750409AF0F1F0882378
:100970004AF0EE0FFF1FBB1F661F771F881F9150A5
:100980005040A9F79E3F510580F00C9419040C9437
:1009900064045F3FE4F3983ED4F3869577956795BA
:1009A000B795F795E7959F5FC1F7FE2B880F911DCF
:1009B0009695879597F908950E944904E8F09E3727
:1009C000E8F09639B8F49E3848F4672F782F8827D6
:1009D000985FF9CF86957795679593959539D0F37C
:1009E000B62FB1706B0F711D811D20F4879577951F
:1009F000679593950C9400050C941B050C94640466
:100A0000882371F4772321F09850872B762F07C025
:100A1000662311F499270DC09051862B70E060E099
:100A20002AF09A95660F771F881FDAF7880F969538
:100A3000879597F908959F3F31F0915020F487955D
:100A400077956795B795880F911D9695879597F936
:060A50000895F894FFCFA9
:100A560031323334353637383900000000000000B3
:100A66000000000000000000000000000000000080
:100A76000000000000000000000000000000000070
:100A86000000000000000000000000004142434456
:100A960045464748494A4B4C00000000000000000C
:100AA6000000000000000000000000000000000040
:100AB6000000000000000000000000000000000030
:100AC6000000000000000000000000000000000020
:100AD6000000000000000000000000005072657376
:100AE600732074686520666F6C6C6F77696E67201B
:100AF6006E756D62657220666F7220746865206619
:100B0600756E6374696F6E20796F75206E656564A6
:100B160000313A20636F6E74726F6C2074686520C2
:100B2600646F6F7200323A20636F6E74726F6C205E
:100B3600746865206C696768747300333A206D6F5A
:100B46006E69746F72207468652074656D70657265
:100B5600657475726500343A2073657420616E2081
:100B6600616C61726D00353A206564697420746841
:100B760065206C697374206F6620757365727300E7
:100B8600313A206F70656E2074686520646F6F72ED
:100B9600200D0A00323A20636C6F736520646F6F14
:100BA60072200D0A0063686F6F7365206C656420A0
:100BB6003120746F2034000D0A20456E7465722052
:100BC600796F757220757365726E616D652E200D75
:100BD6000A00456E74657220796F757220706173B4
:100BE60073776F72642E0D0A00696E76616C6964A4
:0C0BF600206F7074696F6E200D0A000003
:00000001FF
